:020000040800F2
:1000000078070020D5010008B90900080108000898
:100010007D0800088D040008C71F000800000000CC
:10002000000000000000000000000000030D0008B8
:10003000ED050008000000004D0A0008150E00083C
:10004000EF010008EF010008EF010008EF010008D0
:10005000EF010008EF010008EF010008EF010008C0
:10006000EF010008EF010008EF010008EF010008B0
:10007000EF010008EF010008EF010008EF010008A0
:10008000EF010008EF010008EF010008EF01000890
:10009000EF010008EF010008EF010008EF01000880
:1000A000EF010008EF010008EF010008EF01000870
:1000B000EF010008EF010008EF010008EF01000860
:1000C000EF010008EF010008EF010008EF01000850
:1000D000EF010008091D0008EF010008EF0100080A
:1000E000EF010008EF010008EF010008EF01000830
:1000F000EF010008EF010008EF010008EF01000820
:10010000EF010008EF010008EF010008EF0100080F
:10011000011A0008851B0008EF010008EF01000824
:10012000EF010008EF010008EF010008EF010008EF
:1001300000F002F800F03FF80AA090E8000C8244BA
:100140008344AAF10107DA4501D100F034F8AFF297
:10015000090EBAE80F0013F0010F18BFFB1A43F0A5
:10016000010318476821000088210000103A24BFCD
:1001700078C878C1FAD8520724BF30C830C144BF0C
:1001800004680C607047000000230024002500264E
:10019000103A28BF78C1FBD8520728BF30C148BFEA
:1001A0000B607047642900F07780002070471FB50E
:1001B0001FBD10B510BD00F037F91146FFF7F7FF6E
:1001C00001F062FF00F055F903B4FFF7F2FF03BC42
:1001D00001F0FBFE0948804709480047FEE7FEE7BB
:1001E000FEE7FEE7FEE7FEE7FEE7FEE7FEE7FEE7E7
:1001F00004480549054A064B70470000190E0008DF
:1002000031010008780100207807002078030020E1
:1002100078030020704700000FB4044910B503AA0A
:10022000029800F0D3F810BC5DF814FB30000020F9
:100230002DE9F0410E460446002020622046E16888
:10024000884730B3252805D0D4E901219047206A9A
:10025000401CF2E7E168204600278847050018D0D7
:10026000A5F14100192802D820354FF40067324625
:10027000294620462760FFF795FF40B1012804D0AA
:10028000F61D26F007060836D8E7361DD6E72846BD
:10029000DAE7206ABDE8F0812DE9F0410646002446
:1002A00010687529314616A510D0AFF300800028DC
:1002B00002DA404213A507E031688A0701D512A58A
:1002C00002E0490704D511A5012401E0AFF3008045
:1002D00000210A2206F1240709E0B0FBF2FCB0FB82
:1002E000F2F302FB1C00303078541846491C0028F9
:1002F000F3D123462A463046BDE8F04100F00CB861
:10030000000000002D0000002B0000002000000075
:1003100070477047704770472DE9F0470D46994682
:100320009246044600F124080168880604D5E06975
:1003300021F01001216000E00120A84201DD471BEF
:1003400000E00027A1697A1902EB0900081AA061F0
:100350002078C00602D42046AFF30080002608E0D3
:10036000D4E901211AF806009047206A401C761C47
:1003700020624E45F4DB2078C0060AD52046AFF354
:10038000008006E0D4E9012130209047206A401C1B
:100390002062381EA7F10107F4DC07E0D4E901214F
:1003A00018F805009047206A401C2062281EA5F11D
:1003B0000105F3DC2046AFF300802078000602D56B
:1003C0000220BDE8F0870120FBE70000074B70B575
:1003D0000D467B4400F011F80446284600F020F852
:1003E00010B14FF0FF3070BD204670BD971C00006B
:1003F00001694A1C02610878704700B58FB0CDE9E9
:1004000001310021059105497944CDE903101146D8
:100410006846FFF70DFF0FB000BD0000E5FFFFFFCE
:10042000007B00F080007047754600F02BF8AE4668
:1004300005006946534620F00700854618B020B5F0
:10044000FFF7D6FEBDE820404FF000064FF0000752
:100450004FF000084FF0000B21F00701AC46ACE86C
:10046000C009ACE8C009ACE8C009ACE8C0098D46D9
:10047000704710B50446AFF300802046BDE8104039
:10048000FFF7A2BE004870471401002000BFFEE73E
:1004900038B5002400F030FE4FF4FA7001F0BAFDD8
:1004A000414800F00AFD41493F4800F07BFB3E48CF
:1004B000008800903C48C388828841883CA0FFF7B0
:1004C000ABFE3A48C378827801883FA0FFF7A4FECC
:1004D0003648018841A0FFF79FFEC82001F09AFD31
:1004E00032480088AF280ADB30480088CD2806DC77
:1004F0004FF42F714FF0804001F02DFA01242B486A
:10050000008878280ADB29480088962806DC40F213
:100510004C414FF0804001F01EFA0124234800882E
:1005200028280FDB2148008850280BDC1E48008853
:10053000B0F57A7F06DC40F2DC514FF0804001F0EC
:100540000AFA012419480088462810DB1748008859
:1005500064280CDC1448008840F2DC51884206DB39
:1005600040F26C714FF0804001F0F5F901240F4822
:100570000088782810DB0D480088B4280CDC0A4875
:10058000008840F2A461884206DB40F6FC014FF08F
:10059000804001F0E0F9012400F0D4FD4FF47A70BE
:1005A00001F038FD204638BD200000202800002042
:1005B000523D256420473D256420423D256420436B
:1005C0003D25640D0A000000483D256420533D256B
:1005D00064204C3D25640D0A000000004D656469EF
:1005E000616E483D25640D0A000000007047000060
:1005F00010B501211D2000F04BFA0121014800F047
:100600008FF810BD000230002DE9F04102460025B0
:100610000026002000230024002791F803C00CF0DE
:100620000F0591F803C00CF0100CBCF1000F03D0C3
:1006300091F802C04CEA050591F800C0BCF1000F2A
:1006400031D0146800202BE04FF0010C0CFA00F3BD
:10065000B1F800C00CEA03069E4220D183004FF09F
:100660000F0C0CFA03F7BC4305FA03FC4CEA040434
:1006700091F803C0BCF1280F06D14FF0010C0CFA21
:1006800000FCC2F814C00AE091F803C0BCF1480FA6
:1006900005D14FF0010C0CFA00FCC2F810C0401C50
:1006A0000828D1D31460B1F800C0BCF1FF0F34DDCD
:1006B000546800202EE000F1080C4FF0010808FA01
:1006C0000CF3B1F800C00CEA03069E4221D183006E
:1006D0004FF00F0C0CFA03F7BC4305FA03FC4CEA8D
:1006E000040491F803C0BCF1280F05D100F1080CF7
:1006F00008FA0CF8C2F8148091F803C0BCF1480F56
:1007000007D100F1080C4FF0010808FA0CF8C2F804
:100710001080401C0828CED35460BDE8F081000052
:10072000F0B50A46002300240021002500F0004611
:10073000B6F1004F02D11D4EF16901E01B4E716808
:10074000C0F3034583B200F44016B6F5401F08D14C
:1007500021F07061154E766826F07066134F7E604A
:1007600012E000F48016B6F5801F06D1032606FAC3
:1007700005F4A14341F0706106E0460D360103FA2D
:1007800006F6B14341F0706122B1460D360103FA1D
:1007900006F6314300F00046B6F1004F02D1034E99
:1007A000F16101E0014E7160F0BD00000000014008
:1007B000416170470161704708B50121082000F0D0
:1007C00067F94FF44040ADF8000048208DF8030071
:1007D00069460948FFF718FF0121102000F058F979
:1007E00040F2FF30ADF8000048208DF80300694664
:1007F0000248FFF709FF08BD000801400010014052
:1008000000BFFEE708B50121242000F041F94FF4B4
:100810008070ADF8000010208DF8030003208DF8E3
:10082000020069460948FFF7EFFE4FF48071074860
:10083000FFF7C0FF0420ADF8000069460448FFF749
:10084000E3FE04210248FFF7B5FF08BD00080140A0
:100850000014014008B50121042000F019F94FF4FB
:10086000F040ADF8000048208DF8030069460248CA
:10087000FFF7CAFE08BD0000000C014000BFFEE704
:1008800000B589B00121062000F0E2F801210D2019
:1008900000F0FEF8444800F00FFE444800F00CFE63
:1008A00040F2C330ADF8200018208DF8230003205B
:1008B0008DF8220008A93E48FFF7A6FEC020ADF83B
:1008C000200008A93B48FFF79FFE40F2F130ADF849
:1008D00018000520ADF814000020ADF81A00ADF89E
:1008E000160005A9304801F039F805A92F4801F094
:1008F00035F86020ADF804000120ADF806000020B6
:10090000ADF80C0001A9284800F0CAFE08212648CD
:1009100000F012FF01A9244800F018FF0821224826
:1009200000F066FF01A9204800F070FF08211E4872
:1009300000F0BCFF01A91C4800F0C2FF08211A48C2
:1009400000F0FCFF01A9194800F0AAFE0821174891
:1009500000F0F2FE01A9154800F0F8FE0821134846
:1009600000F046FF01A9114800F050FF08210F4890
:1009700000F09CFF01A90D4800F0A2FF08210B48E0
:1009800000F0DCFF0121084800F07EFD012107484E
:1009900000F07AFD0121044800F082FD01210348A6
:1009A00000F07EFD09B000BD0008004000040040DA
:1009B000000C014000080140704710B54FF4A060E2
:1009C00000F03AF810BD000070B5002100230F229E
:1009D000C47804B3154C246804F4E064C4F5E064FE
:1009E000210AC1F10403CA40447804FA03F184786F
:1009F0001440214309010E4C0678A155047804F0F7
:100A00001F050124AC4005786D11AD0005F1E0250E
:100A1000C5F8004109E0047804F01F050124AC404A
:100A2000044D0678761145F8264070BD0CED00E0C7
:100A300000E400E080E100E002490143024A116065
:100A4000704700000000FA050CED00E07047000060
:100A500029B1064AD2690243044BDA6104E0034A31
:100A6000D2698243014BDA617047000000100240F6
:100A700029B1064A12690243044B1A6104E0034A91
:100A800012698243014B1A61704700000010024056
:100A900029B1064A92690243044B9A6104E0034A71
:100AA00092698243014B9A61704700000010024036
:100AB00029B1064AD2680243044BDA6004E0034AD3
:100AC000D2688243014BDA60704700000010024098
:100AD00030B500210022002400232D4D6D6805F063
:100AE0000C0121B1042905D0082923D105E0294DA5
:100AF000056022E0274D05601FE0254D6D6805F477
:100B00007012234D6D6805F48034022505EB924286
:100B10001CB9214D554305600BE01D4D6D6805F472
:100B200000351DB11C4D5543056002E0194D55437C
:100B3000056002E0174D056000BF00BF144D6D68F1
:100B400005F0F0010909154D6B5C0568DD40456055
:100B50000F4D6D6805F4E061090A104D6B5C456846
:100B6000DD4085600A4D6D6805F46051C90A0B4D82
:100B70006B5C4568DD40C560054D6D6805F440411E
:100B8000890B074D6B5CC568B5FBF3F5056130BD9E
:100B90000010024000127A0000093D0036000020DB
:100BA000460000202DE9F0410446B4F802C04FF0A1
:100BB00064080CFB08FCB4F800809CFBF8FC0CF00B
:100BC000FF06B4F804C04FF064080CFB08FCB4F84E
:100BD00000809CFBF8FC0CF0FF00B4F806C04FF05E
:100BE00064080CFB08FCB4F800809CFBF8FC0CF0DB
:100BF000FF02864205DA904201DA944606E0844616
:100C000004E0964201DA944600E0B4466346864228
:100C100005DD904201DD944606E0844604E09642FC
:100C200001DD944600E0B4466746A3EB070C0CF0E8
:100C3000FF0503EB070C0CEBDC78C8F3470881F8E1
:100C40000380BB4206D14FF0000CA1F800C081F830
:100C500002C054E0B34219D190420ADBA0EB020C6F
:100C6000CCEB0C1C4FEA8C0C9CFBF5FCA1F800C0F3
:100C700029E0A0EB020CCCEB0C1C4FEA8C0C9CFB8B
:100C8000F5FC0CF5B47CA1F800C01CE083420CD14B
:100C9000A2EB060CCCEB0C1C4FEA8C0C9CFBF5FC7D
:100CA0000CF1780CA1F800C00DE093420BD1A6EB3B
:100CB000000CCCEB0C1C4FEA8C0C9CFBF5FC0CF1F3
:100CC000F00CA1F800C091F803C0BCF1320F0ADCAF
:100CD0004FF0640C05FB0CFC03EB07089CFBF8FCD5
:100CE00081F802C00BE04FF0640C05FB0CFC03EB39
:100CF0000708C8F1C8089CFBF8FC81F802C0BDE8F1
:100D0000F081704710B500F001F810BD0CB500205F
:100D1000019000903348006840F480303149086009
:100D200000BF3048006800F4003000900198401C7B
:100D30000190009818B90198B0F5A06FF1D1294839
:100D4000006800F4003010B10120009001E00020A4
:100D500000900098012843D12348006840F010001B
:100D6000214908600846006820F003000860084632
:100D7000006840F0020008601A484068194948605D
:100D80000846406848600846406840F48060486013
:100D90000846406820F47C1048600846406840F4EB
:100DA000E81048600846006840F08070086000BFA6
:100DB0000C48006800F000700028F9D0094840682D
:100DC00020F00300074948600846406840F00200F0
:100DD000486000BF0348406800F00C000828F9D1C3
:100DE0000CBD00000010024000200240042808D181
:100DF0004FF0E021096941F004014FF0E022116158
:100E000007E04FF0E021096921F004014FF0E022F2
:100E1000116170477047000010B51348006840F03A
:100E200001001149086008464068104908400E4911
:100E30004860084600680E4908400B4908600846AB
:100E4000006820F4802008600846406820F4FE0016
:100E500048604FF41F008860FFF754FF4FF00060B8
:100E60000449086010BD0000001002400000FFF8B7
:100E7000FFFFF6FE08ED00E008B50120009001221A
:100E80006946002000F022FA032000900122694602
:100E9000002000F01BFA08BD38B504460020009081
:100EA00002226946204600F0EEF99DF800009DF808
:100EB000011040EA0125284638BD38B50446012016
:100EC000009001226946132000F0DDF99DF8000032
:100ED00000F0010088B11420FFF7DEFF208016200B
:100EE000FFF7DAFF60801820FFF7D6FFA0801A20F6
:100EF000FFF7D2FFE080012038BD0020FCE70000B2
:100F000010B510211048FFF753FC0F48006820F47B
:100F100070000D4908600846006840F44010086001
:100F200020210948FFF744FC142001F099F8102112
:100F30000548FFF73FFC142001F092F81021024809
:100F4000FFF736FC10BD0000000C014008B5302052
:100F5000ADF8000010208DF8030003208DF802008A
:100F600069460448FFF750FB30210248FFF722FC96
:100F700008BD0000000C014010B510211048FFF71B
:100F800017FC0F48006820F470000D4908600846FF
:100F9000006840F44010086020210948FFF70AFC6F
:100FA000142001F05DF810210548FFF703FC142020
:100FB00001F056F810210248FFF7FAFB10BD0000BF
:100FC000000C01402DE9F04107460D4616469846B3
:100FD000002400F091F8012101EB4701C8B200F0B4
:100FE00051F800F0D5F800BF0DE0701EA04204D10A
:100FF000002000F011F8285503E0012000F00CF863
:101000002855601CC4B2B442EFDBB8F1010F01D126
:1010100000F098F8BDE8F08170B505460024184846
:10102000006820F47000164908600846006840F423
:1010300000000860002619E010211148FFF7B8FBF6
:10104000142001F00DF810210D48FFF7B3FB6006E6
:10105000040E0B480830006800F0200008B1601C46
:10106000C4B20A2000F0FCFF701CC6B2082EE3DBFD
:1010700015B9FFF781FF01E0FFF742FF204670BD81
:10108000000C014070B504461A48006820F4700056
:10109000184908600846006840F4401008601021B4
:1010A0001448FFF785FB002521E00120B0EBD41F99
:1010B00004D120210F48FFF77DFB03E020210D48DC
:1010C000FFF776FB6006040E142000F0C9FF102124
:1010D0000848FFF76FFB142000F0C2FF10210548FD
:1010E000FFF766FB142000F0BBFF681CC5B2082D9B
:1010F000DBDB70BD000C014010B51148006820F426
:1011000070000F4908600846006840F4401008600D
:1011100020210B48FFF74EFB10210948FFF74AFB3F
:10112000282000F09DFF20210548FFF741FB2820E3
:1011300000F096FF10210248FFF73AFB10BD0000B7
:10114000000C014010B51148006820F470000F49F0
:1011500008600846006840F44010086010210B4801
:10116000FFF726FB20210948FFF722FB282000F08B
:1011700077FF10210548FFF71DFB20210348FFF7EB
:1011800019FB282000F06CFF10BD0000000C01408E
:1011900010B500241648006820F470001449086057
:1011A0000846006840F40000086020211048FFF75E
:1011B00001FB0A2000F054FF10210D48FFF7FAFA56
:1011C0000A2000F04DFF06E0641CFA2C03D9FFF75B
:1011D000B9FF012010BD06480830006800F020006B
:1011E0000028F1D110210248FFF7E2FA0020F1E7D0
:1011F000000C01402DE9F04105460E461746984681
:101200000024FFF779FF002141EA4501C8B2FFF74A
:1012100039FFFFF7BDFF00BF06E0305DFFF732FF8B
:10122000FFF7B6FF601CC4B2BC42F6DBB8F1010F99
:1012300001D1FFF787FFBDE8F08108B500200090DD
:10124000FFF784FE01226946122000F01CF89DF889
:1012500000004D2801D1012000E000209DF8001081
:10126000442901D1012100E00021084348B1EB20CD
:1012700000F025F8002000F01BF8FFF7FDFD01202D
:1012800008BD0020FCE737B50C4615469DF8000068
:1012900040F0800000900023012269462920FFF7DA
:1012A000A9FF01232A4621462920FFF78BFE3EBDD8
:1012B00001B5012269460F2000F008F808BD01B50C
:1012C00001226946104600F001F808BDFEB5064649
:1012D0000F4615460020009001900290002446F031
:1012E00080008DF80000012405E0601E385C0DF8D8
:1012F0000400601CC4B2AC42F7DD681CC2B201231A
:1013000069462920FFF776FFFEBD000030B589B0A1
:1013100005460C4601210846FFF79AFB01210D20E6
:10132000FFF7B6FB01213048FFF7FAF94FF4004010
:10133000ADF8200018208DF8230003208DF822003E
:1013400008A92A48FFF760F940F60840ADF82000E8
:1013500018208DF8230003208DF8220008A92448C6
:10136000FFF752F9ADF81850ADF814400020ADF871
:101370001A00ADF8160005A94FF0804000F0EEFA13
:101380006020ADF804000120ADF806000020ADF8A3
:101390000C0001A94FF0804000F082F90821C80636
:1013A00000F0CAF901A94FF0804000F0CFF9082100
:1013B000C80600F01DFA01A94FF0804000F026FA9F
:1013C0000821C80600F072FA01A94FF0804000F031
:1013D00077FA0821C80600F0B1FA0121880700F069
:1013E0005FF809B030BD000000031800000801409C
:1013F000000C014030B589B005460C46012108209B
:10140000FFF726FB01210520FFF742FB0320ADF883
:10141000200018208DF8230003208DF8220008A951
:101420001748FFF7F1F8ADF81850ADF81440002058
:10143000ADF81A00ADF8160005A9124800F08EFAB2
:101440006020ADF804000120ADF806000020ADF8E2
:101450000C0001A90B4800F023F90821094800F00D
:101460006BF901A9074800F071F90821054800F05F
:10147000BFF90121034800F013F809B030BD0000A6
:1014800000080140000C004021B1028842F08002B7
:10149000028004E002884FF67F731A400280704792
:1014A00021B1028842F00102028004E002884FF676
:1014B000FE731A400280704710B5044668488442A3
:1014C00008D10121C014FFF7F3FA0021E014FFF75F
:1014D000EFFAC4E0B4F1804F08D101210846FFF7CC
:1014E000C7FA00210120FFF7C3FAB8E05D48844243
:1014F00008D101210220FFF7BBFA00210220FFF7EB
:10150000B7FAACE05848844208D101210420FFF723
:10151000AFFA00210420FFF7ABFAA0E05348844261
:1015200008D101210820FFF7A3FA00210820FFF7C6
:101530009FFA94E04E48844208D101211020FFF721
:1015400097FA00211020FFF793FA88E04948844277
:1015500008D101212020FFF78BFA00212020FFF77E
:1015600087FA7CE04448844208D101214014FFF707
:101570009FFA00216014FFF79BFA70E03F48844215
:1015800009D10121C804FFF793FA00214FF400208C
:10159000FFF78EFA63E03A48844209D10121080539
:1015A000FFF786FA00214FF48010FFF781FA56E02A
:1015B0003448844209D101214805FFF779FA002116
:1015C0004FF40010FFF774FA49E02F48844208D125
:1015D00001214020FFF74CFA00214020FFF748FA94
:1015E0003DE02A48844208D101218020FFF740FADB
:1015F00000218020FFF73CFA31E02548844208D1E1
:1016000001218015FFF734FA0021A015FFF730FA09
:1016100025E02048844209D101210804FFF748FA57
:1016200000214FF48030FFF743FA18E01A48844253
:1016300009D101214804FFF73BFA00214FF40030A3
:10164000FFF736FA0BE01548844208D101218804DF
:10165000FFF72EFA00214FF48020FFF729FA10BD82
:10166000002C01400004004000080040000C004035
:10167000001000400014004000340140004C0140C4
:10168000005001400054014000180040001C004080
:10169000002000400040014000440140004801405B
:1016A00070B5002400220023058C4FF6FE763540ED
:1016B0000584028C8388048B4FF68F752C40B51EF1
:1016C0002C400D882C43751E2A400D892A434D88D5
:1016D0002A43144DA8420BD0134DA84208D0134DF5
:1016E000A84205D0124DA84202D0124DA84213D1F3
:1016F0004FF6F7752A404D892A434FF6FB752A406D
:101700008D882A434FF6FF652B404FF6FF552B403F
:101710008D892B43CD892B4383800483CD88858697
:10172000028470BD002C01400034014000400140A3
:1017300000440140004801400A460021018B4FF659
:10174000F7731940114301837047000070B50024FE
:1017500000220023058C4FF6EF7635400584028C7D
:101760008388048B48F6FF752C404FF6FF452C40CC
:101770000D884FF6FF7606EA05252C434FF6DF75F8
:101780002A400D8906EA05152A434D8806EA051503
:101790002A43154DA84202D0144DA8421DD14FF640
:1017A0007F752A404D894FF6FF7606EA05152A43D4
:1017B0004FF6BF752A408D8806EA05152A434FF675
:1017C000FF352B404FF2FF752B408D8906EA8505CA
:1017D0002B43CD8906EA85052B4383800483CD887E
:1017E0000587028470BD0000002C014000340140D8
:1017F0000A460021018B4FF2FF7319404FF6FF7329
:1018000003EA0223194301837047000070B50024E6
:1018100000220023058C4FF6FF6635400584028CBC
:101820008388848B4FF68F752C404FF6FC752C40C7
:101830000D882C434FF6FF552A400D894FF6FF7651
:1018400006EA05252A434D8806EA05252A43154D53
:10185000A84202D0144DA8421DD14FF2FF752A4074
:101860004D894FF6FF7606EA05252A434FF6FF35E8
:101870002A408D8806EA05252A434EF6FF752B403F
:101880004DF6FF752B408D8906EA05152B43CD8952
:1018900006EA05152B4383808483CD8885870284DF
:1018A00070BD0000002C0140003401400A460021B8
:1018B000818B4FF6F7731940114381837047000005
:1018C00070B5002200230024058C4EF6FF763540CB
:1018D0000584038C8488828B48F6FF752A404FF676
:1018E000FF452A400D884FF6FF7606EA05252A4374
:1018F0004DF6FF752B400D8906EA05352B434D88C3
:1019000006EA05352B430B4DA84202D00A4DA842EA
:1019100008D14BF6FF752C408D894FF6FF7606EA0D
:1019200085152C4384808283CD88A0F840500384A1
:1019300070BD0000002C0140003401400A46002127
:10194000818B4FF2FF7319404FF6FF7303EA0223B6
:101950001943818370470187704700000022028885
:101960001D4B98420ED01D4B98420BD0B0F1804FCA
:1019700008D01B4B984205D01A4B984202D01A4B04
:10198000984204D14FF68F731A404B881A43174B75
:10199000984207D0164B984204D04FF6FF431A40A6
:1019A000CB881A4302808B8883850B8803850A4B7A
:1019B00098420BD0094B984208D00E4B984205D064
:1019C0000D4B984202D00D4B984201D10B7A038601
:1019D0000123838270470000002C01400034014045
:1019E0000004004000080040000C004000100040CF
:1019F0000014004000400140004401400048014004
:101A000010B540F225512F4800F01CFA002858D09C
:101A10002C4800F0D3FAC4B22B48007806284FD2E5
:101A2000DFE800F00309131D2330652C02D10120EB
:101A30002549087044E03A2C03D10220224908705D
:101A400002E00020204908703AE0302C03D1032046
:101A50001D49087002E000201B49087030E0642C2A
:101A600002D10420184908702AE03A2C06D100203F
:101A70001649088005201449087002E00320124925
:101A800008701DE0202C00D11AE0302C0BDB392C23
:101A900009DC0E48008800EB800004EB4000303881
:101AA0000A4908800CE06D2C07D1084800880849D5
:101AB000088000200449087002E0002002490870F4
:101AC00000BF10BD004C0040160000201800002090
:101AD0001400002010B586B0044601211020FEF746
:101AE000D7FF0121C804FEF7B3FF244800F05CF9DA
:101AF0004FF48060ADF8100003208DF8120018201C
:101B00008DF8130004A91E48FEF77EFD4FF4006017
:101B1000ADF8100004208DF8130004A91848FEF752
:101B200073FD00940020ADF80400ADF80600ADF898
:101B30000800ADF80C000C20ADF80A0069460F480B
:101B400000F0D0F934208DF8140002208DF8150033
:101B500003208DF8160001208DF8170005A8FEF768
:101B600033FF012240F22551044800F095F901218C
:101B7000024800F00DF906B010BD0000004C004016
:101B80000010014010B540F225512F4800F05AF9DD
:101B9000002858D02C4800F011FAC4B22B48007825
:101BA00006284FD2DFE800F00309131D2330652C0F
:101BB00002D101202549087044E03A2C03D10220CB
:101BC0002249087002E00020204908703AE0302CD9
:101BD00003D103201D49087002E000201B49087052
:101BE00030E0642C02D10420184908702AE03A2C15
:101BF00006D100201649088005201449087002E02B
:101C00000320124908701DE0202C00D11AE0302C6E
:101C10000BDB392C09DC0E48008800EB800004EB5C
:101C2000400030380A4908800CE06D2C07D1084884
:101C300000880849088000200449087002E000205C
:101C40000249087000BF10BD005000401C00002079
:101C50001E0000201A00002010B586B004460121A5
:101C60003020FEF715FF01210805FEF7F1FE23489D
:101C700000F09AF84FF48050ADF8100003208DF872
:101C8000120018208DF8130004A91D48FEF7BCFCB3
:101C90000420ADF810008DF8130004A91948FEF7D0
:101CA000B3FC00940020ADF80400ADF80600ADF8D8
:101CB0000800ADF80C000C20ADF80A0069460F488A
:101CC00000F010F935208DF8140002208DF8150071
:101CD00003208DF8160001208DF8170005A8FEF7E7
:101CE00073FE012240F22551044800F0D5F801218D
:101CF000024800F04DF806B010BD00000050004052
:101D0000001001400014014010B540F225511D485B
:101D100000F098F810B31B4800F050F9C4B21A480C
:101D2000008800F40040C8B91748008800F48040DB
:101D300060B10A2C03D000201349088020E012482B
:101D4000008840F400401049088019E00D2C06D1AD
:101D50000D48008840F480400B49088010E00A4894
:101D60000088C0F30D0009490C5407480088401C46
:101D70000549088008460088C72801DD0020088042
:101D800010BD000000380140340000204C0000204D
:101D900021B1828942F40052828104E082894DF6A9
:101DA000FF731A408281704710B504462048844270
:101DB00009D101218803FEF77BFE00214FF480400A
:101DC000FEF776FE32E01B48844209D10121480427
:101DD000FEF74EFE00214FF40030FEF749FE25E0ED
:101DE0001548844209D101218804FEF741FE0021F3
:101DF0004FF48020FEF73CFE18E01048844209D1E1
:101E00000121C804FEF734FE00214FF40020FEF744
:101E10002FFE0BE00A48844208D101210805FEF795
:101E200027FE00214FF48010FEF722FE10BD0000B7
:101E3000003801400044004000480040004C004091
:101E40000050004070B50246002400230025002009
:101E500040F66A16B14200D100BFC1F3421501F04D
:101E60001F03012606FA03F3012D02D196893340A0
:101E700006E0022D02D1168A334001E0968A3340F3
:101E80000C12012606FA04F41688344013B10CB182
:101E9000012000E0002070BDF0B5034600240026BC
:101EA0000025002040F66A17B94200D100BF18464D
:101EB000C1F3421401F01F06012707FA06F5012CB1
:101EC00001D10C3004E0022C01D1103000E01430BC
:101ED0001AB107682F43076002E00768AF43076045
:101EE000F0BD00002DE9F04786B005460E460024FF
:101EF000A24600BFA1460027B08900B100BF2F460F
:101F00002C8A4CF6FF700440F08804432C82AC8984
:101F10004EF6F3100440B0883189084371890843B4
:101F20000443AC81AC8A4FF6FF400440B0890443BF
:101F3000AC8201A8FEF7CCFD1F48874202D1DDF834
:101F400010A001E0DDF80CA0A88900F4004040B129
:101F50000AEBCA0000EB0A1031684900B0FBF1F847
:101F600007E00AEBCA0000EB0A1031688900B0FBF9
:101F7000F1F86420B8FBF0F004012009642101FBB2
:101F80001089A88900F4004040B1322000EBC9005C
:101F9000B0FBF1F000F00700044308E0322000EB52
:101FA00009106421B0FBF1F000F00F0004432C8114
:101FB00006B0BDE8F087000000380140014688887F
:101FC000C0F30800704700BFFEE700BF7047000085
:101FD00010B56FF00400FEF709FF0A4800680A49CF
:101FE000B0FBF1F0094908700846007800EB4001A9
:101FF000C1EBC0104FF6FF7101EAC0000449088030
:1020000010BD00000000002000127A002C0000200B
:102010002E0000200146114A12884A434FF0E02367
:102020005A6100229A611A46126942F001021A614D
:1020300000BF4FF0E022106900F001021AB100F475
:102040008032002AF5D04FF0E022126922F001021E
:102050004FF0E0231A6100229A6170472E000020A1
:1020600000BF011EA0F10100FBD1704700BF054A6F
:10207000128802F04002002AF9D0C2B2014B1B1DA7
:102080001A8070470038014070B5FEF796FCFFF7E4
:102090009FFFFEF7B7FBFEF7DDFBFEF7F1FBFEF758
:1020A0008BFBFFF7CAF8472144F61F60FFF7A2F940
:1020B000472144F61F60FFF729F94FF4E13000F0A3
:1020C00053F84FF4E130FFF705FD4FF4E130FFF72F
:1020D000C3FD4FF4165000F09BF8FEF789FAFFF7A6
:1020E000ACF81BA0FEF798F800201D4908602AE014
:1020F0004FF4FA711B48FFF72EFC002420E0002566
:10210000204604EBD0714910A4EB410149B94FF4CA
:10211000FA711448FFF71FFC4FF47A70FFF77AFF4B
:1021200004E040F2EE210F48FFF715FC4FF47A70FF
:10213000FFF770FFFEF7ACF90546012D00D1641CD6
:10214000082CDCDD00E0D3E700BF002070BD0000FC
:10215000496E697469616C204F4B210D0A000000C3
:10216000A0012142000C004010B586B004460121B8
:1021700044F20400FEF78CFC2348FFF715FE4FF4F1
:102180000070ADF8140003208DF8160018208DF8AB
:10219000170005A91D48FEF737FA4FF48060ADF827
:1021A000140004208DF8170005A91848FEF72CFA32
:1021B00025208DF8000003208DF801008DF8020025
:1021C00001208DF803006846FEF7FEFB0194002015
:1021D000ADF80800ADF80A00ADF80C00ADF810003D
:1021E0000C20ADF80E0001A90748FFF77BFE012285
:1021F00040F225510448FFF74FFE01210248FFF746
:10220000C7FD06B010BD00000038014000080140C5
:1022100010B586B004464FF4A060FEF70DFC012116
:102220000420FEF735FC01210846FEF731FC0121B0
:102230004804FEF70DFC18208DF817000420ADF8B7
:10224000140001208DF8160005A91E48FEF7DCF9E0
:1022500004208DF817000820ADF8140005A91948CE
:10226000FEF7D2F9012240F225511748FFF714FE7C
:102270004FF4165001900020ADF810000C20ADF87E
:102280000E000020ADF80C00ADF80A00ADF8080013
:1022900001A90D48FFF726FE01210B48FFF778FD45
:1022A00026208DF8000001208DF8030000208DF815
:1022B000010003208DF802006846FEF785FB06B09A
:1022C00010BD00000008014000440040EC2200085E
:1022D000000000204C0000006C01000838230008BA
:1022E0004C0000202C0700008801000800A24A04CE
:1022F00000000000000000000102030406070809B6
:1023000000000000000000000000000000000000CD
:1023100000000000000000000000000000000000BD
:10232000000000000000010203040102030406078C
:08233000080902040608000080
:0400000508000131BD
:00000001FF
